{
  "contractName": "SolnSquareVerifier",
  "abi": [
    {
      "constant": true,
      "inputs": [
        {
          "name": "interfaceId",
          "type": "bytes4"
        }
      ],
      "name": "supportsInterface",
      "outputs": [
        {
          "name": "",
          "type": "bool"
        }
      ],
      "payable": false,
      "stateMutability": "view",
      "type": "function"
    },
    {
      "constant": true,
      "inputs": [
        {
          "name": "tokenId",
          "type": "uint256"
        }
      ],
      "name": "getApproved",
      "outputs": [
        {
          "name": "",
          "type": "address"
        }
      ],
      "payable": false,
      "stateMutability": "view",
      "type": "function"
    },
    {
      "constant": false,
      "inputs": [
        {
          "name": "to",
          "type": "address"
        },
        {
          "name": "tokenId",
          "type": "uint256"
        }
      ],
      "name": "approve",
      "outputs": [],
      "payable": false,
      "stateMutability": "nonpayable",
      "type": "function"
    },
    {
      "constant": true,
      "inputs": [],
      "name": "getSymbol",
      "outputs": [
        {
          "name": "",
          "type": "string"
        }
      ],
      "payable": false,
      "stateMutability": "view",
      "type": "function"
    },
    {
      "constant": true,
      "inputs": [],
      "name": "getName",
      "outputs": [
        {
          "name": "",
          "type": "string"
        }
      ],
      "payable": false,
      "stateMutability": "view",
      "type": "function"
    },
    {
      "constant": true,
      "inputs": [],
      "name": "totalSupply",
      "outputs": [
        {
          "name": "",
          "type": "uint256"
        }
      ],
      "payable": false,
      "stateMutability": "view",
      "type": "function"
    },
    {
      "constant": false,
      "inputs": [
        {
          "name": "from",
          "type": "address"
        },
        {
          "name": "to",
          "type": "address"
        },
        {
          "name": "tokenId",
          "type": "uint256"
        }
      ],
      "name": "transferFrom",
      "outputs": [],
      "payable": false,
      "stateMutability": "nonpayable",
      "type": "function"
    },
    {
      "constant": false,
      "inputs": [
        {
          "name": "_myid",
          "type": "bytes32"
        },
        {
          "name": "_result",
          "type": "string"
        }
      ],
      "name": "__callback",
      "outputs": [],
      "payable": false,
      "stateMutability": "nonpayable",
      "type": "function"
    },
    {
      "constant": true,
      "inputs": [
        {
          "name": "owner",
          "type": "address"
        },
        {
          "name": "index",
          "type": "uint256"
        }
      ],
      "name": "tokenOfOwnerByIndex",
      "outputs": [
        {
          "name": "",
          "type": "uint256"
        }
      ],
      "payable": false,
      "stateMutability": "view",
      "type": "function"
    },
    {
      "constant": false,
      "inputs": [
        {
          "name": "_myid",
          "type": "bytes32"
        },
        {
          "name": "_result",
          "type": "string"
        },
        {
          "name": "_proof",
          "type": "bytes"
        }
      ],
      "name": "__callback",
      "outputs": [],
      "payable": false,
      "stateMutability": "nonpayable",
      "type": "function"
    },
    {
      "constant": false,
      "inputs": [
        {
          "name": "from",
          "type": "address"
        },
        {
          "name": "to",
          "type": "address"
        },
        {
          "name": "tokenId",
          "type": "uint256"
        }
      ],
      "name": "safeTransferFrom",
      "outputs": [],
      "payable": false,
      "stateMutability": "nonpayable",
      "type": "function"
    },
    {
      "constant": true,
      "inputs": [
        {
          "name": "index",
          "type": "uint256"
        }
      ],
      "name": "tokenByIndex",
      "outputs": [
        {
          "name": "",
          "type": "uint256"
        }
      ],
      "payable": false,
      "stateMutability": "view",
      "type": "function"
    },
    {
      "constant": true,
      "inputs": [
        {
          "name": "tokenId",
          "type": "uint256"
        }
      ],
      "name": "ownerOf",
      "outputs": [
        {
          "name": "",
          "type": "address"
        }
      ],
      "payable": false,
      "stateMutability": "view",
      "type": "function"
    },
    {
      "constant": true,
      "inputs": [
        {
          "name": "owner",
          "type": "address"
        }
      ],
      "name": "balanceOf",
      "outputs": [
        {
          "name": "",
          "type": "uint256"
        }
      ],
      "payable": false,
      "stateMutability": "view",
      "type": "function"
    },
    {
      "constant": true,
      "inputs": [],
      "name": "getOwner",
      "outputs": [
        {
          "name": "",
          "type": "address"
        }
      ],
      "payable": false,
      "stateMutability": "view",
      "type": "function"
    },
    {
      "constant": false,
      "inputs": [
        {
          "name": "to",
          "type": "address"
        },
        {
          "name": "approved",
          "type": "bool"
        }
      ],
      "name": "setApprovalForAll",
      "outputs": [],
      "payable": false,
      "stateMutability": "nonpayable",
      "type": "function"
    },
    {
      "constant": false,
      "inputs": [
        {
          "name": "from",
          "type": "address"
        },
        {
          "name": "to",
          "type": "address"
        },
        {
          "name": "tokenId",
          "type": "uint256"
        },
        {
          "name": "_data",
          "type": "bytes"
        }
      ],
      "name": "safeTransferFrom",
      "outputs": [],
      "payable": false,
      "stateMutability": "nonpayable",
      "type": "function"
    },
    {
      "constant": true,
      "inputs": [],
      "name": "getBaseTokenURI",
      "outputs": [
        {
          "name": "",
          "type": "string"
        }
      ],
      "payable": false,
      "stateMutability": "view",
      "type": "function"
    },
    {
      "constant": false,
      "inputs": [
        {
          "name": "mode",
          "type": "bool"
        }
      ],
      "name": "setPause",
      "outputs": [],
      "payable": false,
      "stateMutability": "nonpayable",
      "type": "function"
    },
    {
      "constant": true,
      "inputs": [
        {
          "name": "tokenId",
          "type": "uint256"
        }
      ],
      "name": "tokenURI",
      "outputs": [
        {
          "name": "",
          "type": "string"
        }
      ],
      "payable": false,
      "stateMutability": "view",
      "type": "function"
    },
    {
      "constant": true,
      "inputs": [
        {
          "name": "owner",
          "type": "address"
        },
        {
          "name": "operator",
          "type": "address"
        }
      ],
      "name": "isApprovedForAll",
      "outputs": [
        {
          "name": "",
          "type": "bool"
        }
      ],
      "payable": false,
      "stateMutability": "view",
      "type": "function"
    },
    {
      "constant": false,
      "inputs": [
        {
          "name": "newOwner",
          "type": "address"
        }
      ],
      "name": "transferOwnership",
      "outputs": [],
      "payable": false,
      "stateMutability": "nonpayable",
      "type": "function"
    },
    {
      "inputs": [],
      "payable": false,
      "stateMutability": "nonpayable",
      "type": "constructor"
    },
    {
      "anonymous": false,
      "inputs": [
        {
          "indexed": false,
          "name": "solutionKey",
          "type": "bytes32"
        }
      ],
      "name": "SolutionAdded",
      "type": "event"
    },
    {
      "anonymous": false,
      "inputs": [
        {
          "indexed": true,
          "name": "from",
          "type": "address"
        },
        {
          "indexed": true,
          "name": "to",
          "type": "address"
        },
        {
          "indexed": true,
          "name": "tokenId",
          "type": "uint256"
        }
      ],
      "name": "Transfer",
      "type": "event"
    },
    {
      "anonymous": false,
      "inputs": [
        {
          "indexed": true,
          "name": "owner",
          "type": "address"
        },
        {
          "indexed": true,
          "name": "approved",
          "type": "address"
        },
        {
          "indexed": true,
          "name": "tokenId",
          "type": "uint256"
        }
      ],
      "name": "Approval",
      "type": "event"
    },
    {
      "anonymous": false,
      "inputs": [
        {
          "indexed": true,
          "name": "owner",
          "type": "address"
        },
        {
          "indexed": true,
          "name": "operator",
          "type": "address"
        },
        {
          "indexed": false,
          "name": "approved",
          "type": "bool"
        }
      ],
      "name": "ApprovalForAll",
      "type": "event"
    },
    {
      "anonymous": false,
      "inputs": [],
      "name": "Paused",
      "type": "event"
    },
    {
      "anonymous": false,
      "inputs": [],
      "name": "Unpaused",
      "type": "event"
    },
    {
      "anonymous": false,
      "inputs": [
        {
          "indexed": false,
          "name": "newOwner",
          "type": "address"
        }
      ],
      "name": "OwnerChanged",
      "type": "event"
    },
    {
      "constant": false,
      "inputs": [
        {
          "name": "to",
          "type": "address"
        },
        {
          "name": "tokenId",
          "type": "uint256"
        },
        {
          "name": "a",
          "type": "uint256[2]"
        },
        {
          "name": "b",
          "type": "uint256[2][2]"
        },
        {
          "name": "c",
          "type": "uint256[2]"
        },
        {
          "name": "input",
          "type": "uint256[2]"
        }
      ],
      "name": "addSolution",
      "outputs": [],
      "payable": false,
      "stateMutability": "nonpayable",
      "type": "function"
    },
    {
      "constant": false,
      "inputs": [
        {
          "name": "to",
          "type": "address"
        },
        {
          "name": "tokenId",
          "type": "uint256"
        },
        {
          "name": "tokenURI",
          "type": "string"
        },
        {
          "name": "a",
          "type": "uint256[2]"
        },
        {
          "name": "b",
          "type": "uint256[2][2]"
        },
        {
          "name": "c",
          "type": "uint256[2]"
        },
        {
          "name": "inputs",
          "type": "uint256[2]"
        }
      ],
      "name": "mint",
      "outputs": [
        {
          "name": "",
          "type": "bool"
        }
      ],
      "payable": false,
      "stateMutability": "nonpayable",
      "type": "function"
    },
    {
      "constant": false,
      "inputs": [
        {
          "name": "to",
          "type": "address"
        },
        {
          "name": "tokenId",
          "type": "uint256"
        },
        {
          "name": "tokenURI",
          "type": "string"
        }
      ],
      "name": "mint",
      "outputs": [
        {
          "name": "",
          "type": "bool"
        }
      ],
      "payable": false,
      "stateMutability": "nonpayable",
      "type": "function"
    }
  ],
  "bytecode": "0x608060405260008060006101000a81548173ffffffffffffffffffffffffffffffffffffffff021916908373ffffffffffffffffffffffffffffffffffffffff1602179055503480156200005257600080fd5b506040518060400160405280600781526020017f52455469746c65000000000000000000000000000000000000000000000000008152506040518060400160405280600281526020017f52450000000000000000000000000000000000000000000000000000000000008152506040518060600160405280603f815260200162004fe9603f9139336000806101000a81548173ffffffffffffffffffffffffffffffffffffffff021916908373ffffffffffffffffffffffffffffffffffffffff1602179055507fa2ea9883a321a3e97b8266c2b078bfeec6d50c711ed71f874a90d500ae2eaf366000809054906101000a900473ffffffffffffffffffffffffffffffffffffffff16604051808273ffffffffffffffffffffffffffffffffffffffff1673ffffffffffffffffffffffffffffffffffffffff16815260200191505060405180910390a1620001b56301ffc9a760e01b620002d860201b60201c565b6000600260006101000a81548160ff021916908315150217905550620001e86380ac58cd60e01b620002d860201b60201c565b6200020063780e9d6360e01b620002d860201b60201c565b826010908051906020019062000218929190620003e1565b50816011908051906020019062000231929190620003e1565b5080601290805190602001906200024a929190620003e1565b5062000263635b5e139f60e01b620002d860201b60201c565b505050604051620002749062000468565b604051809103906000f08015801562000291573d6000803e3d6000fd5b50601460006101000a81548173ffffffffffffffffffffffffffffffffffffffff021916908373ffffffffffffffffffffffffffffffffffffffff1602179055506200049e565b63ffffffff60e01b817bffffffffffffffffffffffffffffffffffffffffffffffffffffffff1916141562000375576040517f08c379a00000000000000000000000000000000000000000000000000000000081526004018080602001828103825260138152602001807f496e76616c696420696e7465726661636549640000000000000000000000000081525060200191505060405180910390fd5b6001806000837bffffffffffffffffffffffffffffffffffffffffffffffffffffffff19167bffffffffffffffffffffffffffffffffffffffffffffffffffffffff1916815260200190815260200160002060006101000a81548160ff02191690831515021790555050565b828054600181600116156101000203166002900490600052602060002090601f016020900481019282601f106200042457805160ff191683800117855562000455565b8280016001018555821562000455579182015b828111156200045457825182559160200191906001019062000437565b5b50905062000464919062000476565b5090565b6111168062003ed383390190565b6200049b91905b80821115620004975760008160009055506001016200047d565b5090565b90565b613a2580620004ae6000396000f3fe608060405234801561001057600080fd5b50600436106101735760003560e01c806342842e0e116100de578063b88d4fde11610097578063c87b56dd11610071578063c87b56dd14610e3b578063d3fc986414610ee2578063e985e9c514610fdf578063f2fde38b1461105b57610173565b8063b88d4fde14610c83578063bdc32be014610d88578063bedb86fb14610e0b57610173565b806342842e0e14610a735780634f6ccce714610ae15780636352211e14610b2357806370a0823114610b91578063893d20e814610be9578063a22cb46514610c3357610173565b806323b872dd1161013057806323b872dd146103bd57806327dc297e1461042b5780632f745c59146104f057806338bbfa50146105525780633eec14da146106ae578063405faf001461083957610173565b806301ffc9a714610178578063081812fc146101dd578063095ea7b31461024b578063150704011461029957806317d7de7c1461031c57806318160ddd1461039f575b600080fd5b6101c36004803603602081101561018e57600080fd5b8101908080357bffffffffffffffffffffffffffffffffffffffffffffffffffffffff1916906020019092919050505061109f565b604051808215151515815260200191505060405180910390f35b610209600480360360208110156101f357600080fd5b8101908080359060200190929190505050611107565b604051808273ffffffffffffffffffffffffffffffffffffffff1673ffffffffffffffffffffffffffffffffffffffff16815260200191505060405180910390f35b6102976004803603604081101561026157600080fd5b81019080803573ffffffffffffffffffffffffffffffffffffffff16906020019092919080359060200190929190505050611144565b005b6102a1611336565b6040518080602001828103825283818151815260200191508051906020019080838360005b838110156102e15780820151818401526020810190506102c6565b50505050905090810190601f16801561030e5780820380516001836020036101000a031916815260200191505b509250505060405180910390f35b6103246113d8565b6040518080602001828103825283818151815260200191508051906020019080838360005b83811015610364578082015181840152602081019050610349565b50505050905090810190601f1680156103915780820380516001836020036101000a031916815260200191505b509250505060405180910390f35b6103a761147a565b6040518082815260200191505060405180910390f35b610429600480360360608110156103d357600080fd5b81019080803573ffffffffffffffffffffffffffffffffffffffff169060200190929190803573ffffffffffffffffffffffffffffffffffffffff16906020019092919080359060200190929190505050611487565b005b6104ee6004803603604081101561044157600080fd5b81019080803590602001909291908035906020019064010000000081111561046857600080fd5b82018360208201111561047a57600080fd5b8035906020019184600183028401116401000000008311171561049c57600080fd5b91908080601f016020809104026020016040519081016040528093929190818152602001838380828437600081840152601f19601f8201169050808301925050505050505091929192905050506114fd565b005b61053c6004803603604081101561050657600080fd5b81019080803573ffffffffffffffffffffffffffffffffffffffff16906020019092919080359060200190929190505050611540565b6040518082815260200191505060405180910390f35b6106ac6004803603606081101561056857600080fd5b81019080803590602001909291908035906020019064010000000081111561058f57600080fd5b8201836020820111156105a157600080fd5b803590602001918460018302840111640100000000831117156105c357600080fd5b91908080601f016020809104026020016040519081016040528093929190818152602001838380828437600081840152601f19601f8201169050808301925050505050505091929192908035906020019064010000000081111561062657600080fd5b82018360208201111561063857600080fd5b8035906020019184600183028401116401000000008311171561065a57600080fd5b91908080601f016020809104026020016040519081016040528093929190818152602001838380828437600081840152601f19601f82011690508083019250505050505050919291929050505061161c565b005b61083760048036036101808110156106c557600080fd5b81019080803573ffffffffffffffffffffffffffffffffffffffff1690602001909291908035906020019092919080604001906002806020026040519081016040528092919082600260200280828437600081840152601f19601f82011690508083019250505050505091929192908060800190600280602002604051908101604052809291906000905b828210156107a4578382604002016002806020026040519081016040528092919082600260200280828437600081840152601f19601f82011690508083019250505050505081526020019060010190610750565b50505050919291929080604001906002806020026040519081016040528092919082600260200280828437600081840152601f19601f820116905080830192505050505050919291929080604001906002806020026040519081016040528092919082600260200280828437600081840152601f19601f8201169050808301925050505050509192919290505050611621565b005b610a5960048036036101a081101561085057600080fd5b81019080803573ffffffffffffffffffffffffffffffffffffffff169060200190929190803590602001909291908035906020019064010000000081111561089757600080fd5b8201836020820111156108a957600080fd5b803590602001918460018302840111640100000000831117156108cb57600080fd5b91908080601f016020809104026020016040519081016040528093929190818152602001838380828437600081840152601f19601f82011690508083019250505050505050919291929080604001906002806020026040519081016040528092919082600260200280828437600081840152601f19601f82011690508083019250505050505091929192908060800190600280602002604051908101604052809291906000905b828210156109c6578382604002016002806020026040519081016040528092919082600260200280828437600081840152601f19601f82011690508083019250505050505081526020019060010190610972565b50505050919291929080604001906002806020026040519081016040528092919082600260200280828437600081840152601f19601f820116905080830192505050505050919291929080604001906002806020026040519081016040528092919082600260200280828437600081840152601f19601f820116905080830192505050505050919291929050505061187b565b604051808215151515815260200191505060405180910390f35b610adf60048036036060811015610a8957600080fd5b81019080803573ffffffffffffffffffffffffffffffffffffffff169060200190929190803573ffffffffffffffffffffffffffffffffffffffff16906020019092919080359060200190929190505050611bf6565b005b610b0d60048036036020811015610af757600080fd5b8101908080359060200190929190505050611c16565b6040518082815260200191505060405180910390f35b610b4f60048036036020811015610b3957600080fd5b8101908080359060200190929190505050611cb3565b604051808273ffffffffffffffffffffffffffffffffffffffff1673ffffffffffffffffffffffffffffffffffffffff16815260200191505060405180910390f35b610bd360048036036020811015610ba757600080fd5b81019080803573ffffffffffffffffffffffffffffffffffffffff169060200190929190505050611cf0565b6040518082815260200191505060405180910390f35b610bf1611d45565b604051808273ffffffffffffffffffffffffffffffffffffffff1673ffffffffffffffffffffffffffffffffffffffff16815260200191505060405180910390f35b610c8160048036036040811015610c4957600080fd5b81019080803573ffffffffffffffffffffffffffffffffffffffff169060200190929190803515159060200190929190505050611d6e565b005b610d8660048036036080811015610c9957600080fd5b81019080803573ffffffffffffffffffffffffffffffffffffffff169060200190929190803573ffffffffffffffffffffffffffffffffffffffff1690602001909291908035906020019092919080359060200190640100000000811115610d0057600080fd5b820183602082011115610d1257600080fd5b80359060200191846001830284011164010000000083111715610d3457600080fd5b91908080601f016020809104026020016040519081016040528093929190818152602001838380828437600081840152601f19601f820116905080830192505050505050509192919290505050611ef4565b005b610d90611f6d565b6040518080602001828103825283818151815260200191508051906020019080838360005b83811015610dd0578082015181840152602081019050610db5565b50505050905090810190601f168015610dfd5780820380516001836020036101000a031916815260200191505b509250505060405180910390f35b610e3960048036036020811015610e2157600080fd5b8101908080351515906020019092919050505061200f565b005b610e6760048036036020811015610e5157600080fd5b81019080803590602001909291905050506120d1565b6040518080602001828103825283818151815260200191508051906020019080838360005b83811015610ea7578082015181840152602081019050610e8c565b50505050905090810190601f168015610ed45780820380516001836020036101000a031916815260200191505b509250505060405180910390f35b610fc560048036036060811015610ef857600080fd5b81019080803573ffffffffffffffffffffffffffffffffffffffff1690602001909291908035906020019092919080359060200190640100000000811115610f3f57600080fd5b820183602082011115610f5157600080fd5b80359060200191846001830284011164010000000083111715610f7357600080fd5b91908080601f016020809104026020016040519081016040528093929190818152602001838380828437600081840152601f19601f8201169050808301925050505050505091929192905050506121eb565b604051808215151515815260200191505060405180910390f35b61104160048036036040811015610ff557600080fd5b81019080803573ffffffffffffffffffffffffffffffffffffffff169060200190929190803573ffffffffffffffffffffffffffffffffffffffff169060200190929190505050612361565b604051808215151515815260200191505060405180910390f35b61109d6004803603602081101561107157600080fd5b81019080803573ffffffffffffffffffffffffffffffffffffffff1690602001909291905050506123f5565b005b600060016000837bffffffffffffffffffffffffffffffffffffffffffffffffffffffff19167bffffffffffffffffffffffffffffffffffffffffffffffffffffffff1916815260200190815260200160002060009054906101000a900460ff169050919050565b60006004600083815260200190815260200160002060009054906101000a900473ffffffffffffffffffffffffffffffffffffffff169050919050565b8173ffffffffffffffffffffffffffffffffffffffff1661116482611cb3565b73ffffffffffffffffffffffffffffffffffffffff1614156111d1576040517f08c379a000000000000000000000000000000000000000000000000000000000815260040180806020018281038252602d815260200180613927602d913960400191505060405180910390fd5b3373ffffffffffffffffffffffffffffffffffffffff166111f182611cb3565b73ffffffffffffffffffffffffffffffffffffffff16148061122857506001151561122461121e83611cb3565b84612361565b1515145b61127d576040517f08c379a000000000000000000000000000000000000000000000000000000000815260040180806020018281038252606a815260200180613954606a913960800191505060405180910390fd5b816004600083815260200190815260200160002060006101000a81548173ffffffffffffffffffffffffffffffffffffffff021916908373ffffffffffffffffffffffffffffffffffffffff160217905550808273ffffffffffffffffffffffffffffffffffffffff166112f083611cb3565b73ffffffffffffffffffffffffffffffffffffffff167f8c5be1e5ebec7d5bd14f71427d1e84f3dd0314c0f7b2291e5b200ac8c7c3b92560405160405180910390a45050565b606060118054600181600116156101000203166002900480601f0160208091040260200160405190810160405280929190818152602001828054600181600116156101000203166002900480156113ce5780601f106113a3576101008083540402835291602001916113ce565b820191906000526020600020905b8154815290600101906020018083116113b157829003601f168201915b5050505050905090565b606060108054600181600116156101000203166002900480601f0160208091040260200160405190810160405280929190818152602001828054600181600116156101000203166002900480156114705780601f1061144557610100808354040283529160200191611470565b820191906000526020600020905b81548152906001019060200180831161145357829003601f168201915b5050505050905090565b6000600980549050905090565b600115156114953383612596565b1515146114ed576040517f08c379a00000000000000000000000000000000000000000000000000000000081526004018080602001828103825260228152602001806137dc6022913960400191505060405180910390fd5b6114f883838361262b565b505050565b61153c828260006040519080825280601f01601f1916602001820160405280156115365781602001600182028038833980820191505090505b5061161c565b5050565b600061154b83611cf0565b82106115bf576040517f08c379a000000000000000000000000000000000000000000000000000000000815260040180806020018281038252600d8152602001807f496e76616c696420696e6465780000000000000000000000000000000000000081525060200191505060405180910390fd5b600760008473ffffffffffffffffffffffffffffffffffffffff1673ffffffffffffffffffffffffffffffffffffffff168152602001908152602001600020828154811061160957fe5b9060005260206000200154905092915050565b505050565b6000848484846040516020018085600260200280838360005b8381101561165557808201518184015260208101905061163a565b505050509050018460026000925b818410156116a95782846020020151600260200280838360005b8381101561169857808201518184015260208101905061167d565b505050509050019260010192611663565b9250505083600260200280838360005b838110156116d45780820151818401526020810190506116b9565b5050505090500182600260200280838360005b838110156117025780820151818401526020810190506116e7565b50505050905001945050505050604051602081830303815290604052805190602001209050600015156117348261264f565b1515146117a9576040517f08c379a00000000000000000000000000000000000000000000000000000000081526004018080602001828103825260178152602001807f536f6c7574696f6e20616c72656164792061646465642e00000000000000000081525060200191505060405180910390fd5b60405180604001604052808781526020018873ffffffffffffffffffffffffffffffffffffffff16815250601560008381526020019081526020016000206000820151816000015560208201518160010160006101000a81548173ffffffffffffffffffffffffffffffffffffffff021916908373ffffffffffffffffffffffffffffffffffffffff1602179055509050507ffec8a71fa6c8a5b62fc287180a595fa2b01835ec8b6afca9a40cf8371ce1f698816040518082815260200191505060405180910390a150505050505050565b600080858585856040516020018085600260200280838360005b838110156118b0578082015181840152602081019050611895565b505050509050018460026000925b818410156119045782846020020151600260200280838360005b838110156118f35780820151818401526020810190506118d8565b5050505090500192600101926118be565b9250505083600260200280838360005b8381101561192f578082015181840152602081019050611914565b5050505090500182600260200280838360005b8381101561195d578082015181840152602081019050611942565b505050509050019450505050506040516020818303038152906040528051906020012090508873ffffffffffffffffffffffffffffffffffffffff166015600083815260200190815260200160002060010160009054906101000a900473ffffffffffffffffffffffffffffffffffffffff1673ffffffffffffffffffffffffffffffffffffffff1614611a3c576040517f08c379a000000000000000000000000000000000000000000000000000000000815260040180806020018281038252604381526020018061387e6043913960600191505060405180910390fd5b600080905060011515601460009054906101000a900473ffffffffffffffffffffffffffffffffffffffff1673ffffffffffffffffffffffffffffffffffffffff1663621e9ec0898989896040518563ffffffff1660e01b81526004018085600260200280838360005b83811015611ac1578082015181840152602081019050611aa6565b505050509050018460026000925b81841015611b155782846020020151600260200280838360005b83811015611b04578082015181840152602081019050611ae9565b505050509050019260010192611acf565b9250505083600260200280838360005b83811015611b40578082015181840152602081019050611b25565b5050505090500182600260200280838360005b83811015611b6e578082015181840152602081019050611b53565b50505050905001945050505050602060405180830381600087803b158015611b9557600080fd5b505af1158015611ba9573d6000803e3d6000fd5b505050506040513d6020811015611bbf57600080fd5b810190808051906020019092919050505015151415611be657611be38a8a8a6121eb565b90505b8092505050979650505050505050565b611c1183838360405180602001604052806000815250611ef4565b505050565b6000611c2061147a565b8210611c94576040517f08c379a000000000000000000000000000000000000000000000000000000000815260040180806020018281038252600d8152602001807f496e76616c696420696e6465780000000000000000000000000000000000000081525060200191505060405180910390fd5b60098281548110611ca157fe5b90600052602060002001549050919050565b60006003600083815260200190815260200160002060009054906101000a900473ffffffffffffffffffffffffffffffffffffffff169050919050565b600080600560008473ffffffffffffffffffffffffffffffffffffffff1673ffffffffffffffffffffffffffffffffffffffff1681526020019081526020016000209050611d3d816126cf565b915050919050565b60008060009054906101000a900473ffffffffffffffffffffffffffffffffffffffff16905090565b3373ffffffffffffffffffffffffffffffffffffffff168273ffffffffffffffffffffffffffffffffffffffff161415611df3576040517f08c379a00000000000000000000000000000000000000000000000000000000081526004018080602001828103825260228152602001806137766022913960400191505060405180910390fd5b80600660003373ffffffffffffffffffffffffffffffffffffffff1673ffffffffffffffffffffffffffffffffffffffff16815260200190815260200160002060008473ffffffffffffffffffffffffffffffffffffffff1673ffffffffffffffffffffffffffffffffffffffff16815260200190815260200160002060006101000a81548160ff0219169083151502179055508173ffffffffffffffffffffffffffffffffffffffff163373ffffffffffffffffffffffffffffffffffffffff167f17307eab39ab6107e8899845ad3d59bd9653f200f220920489ca2b5937696c3183604051808215151515815260200191505060405180910390a35050565b611eff848484611487565b60011515611f0f858585856126dd565b151514611f67576040517f08c379a00000000000000000000000000000000000000000000000000000000081526004018080602001828103825260218152602001806137bb6021913960400191505060405180910390fd5b50505050565b606060128054600181600116156101000203166002900480601f0160208091040260200160405190810160405280929190818152602001828054600181600116156101000203166002900480156120055780601f10611fda57610100808354040283529160200191612005565b820191906000526020600020905b815481529060010190602001808311611fe857829003601f168201915b5050505050905090565b6000809054906101000a900473ffffffffffffffffffffffffffffffffffffffff1673ffffffffffffffffffffffffffffffffffffffff163373ffffffffffffffffffffffffffffffffffffffff16146120b4576040517f08c379a00000000000000000000000000000000000000000000000000000000081526004018080602001828103825260218152602001806138296021913960400191505060405180910390fd5b80600260006101000a81548160ff02191690831515021790555050565b6060600115156120e0836128c6565b151514612138576040517f08c379a000000000000000000000000000000000000000000000000000000000815260040180806020018281038252603481526020018061384a6034913960400191505060405180910390fd5b601360008381526020019081526020016000208054600181600116156101000203166002900480601f0160208091040260200160405190810160405280929190818152602001828054600181600116156101000203166002900480156121df5780601f106121b4576101008083540402835291602001916121df565b820191906000526020600020905b8154815290600101906020018083116121c257829003601f168201915b50505050509050919050565b60008060009054906101000a900473ffffffffffffffffffffffffffffffffffffffff1673ffffffffffffffffffffffffffffffffffffffff163373ffffffffffffffffffffffffffffffffffffffff1614612292576040517f08c379a00000000000000000000000000000000000000000000000000000000081526004018080602001828103825260218152602001806138296021913960400191505060405180910390fd5b60008090506122a18585612949565b60405160200180600001905060405160208183030381529060405280519060200120836040516020018082805190602001908083835b602083106122fa57805182526020820191506020810190506020830392506122d7565b6001836020036101000a0380198251168184511680821785525050505050509050019150506040516020818303038152906040528051906020012014612348576123438461296a565b612352565b6123518461296a565b5b60019050809150509392505050565b6000600660008473ffffffffffffffffffffffffffffffffffffffff1673ffffffffffffffffffffffffffffffffffffffff16815260200190815260200160002060008373ffffffffffffffffffffffffffffffffffffffff1673ffffffffffffffffffffffffffffffffffffffff16815260200190815260200160002060009054906101000a900460ff16905092915050565b6000809054906101000a900473ffffffffffffffffffffffffffffffffffffffff1673ffffffffffffffffffffffffffffffffffffffff163373ffffffffffffffffffffffffffffffffffffffff161461249a576040517f08c379a00000000000000000000000000000000000000000000000000000000081526004018080602001828103825260218152602001806138296021913960400191505060405180910390fd5b600073ffffffffffffffffffffffffffffffffffffffff168173ffffffffffffffffffffffffffffffffffffffff161461259357806000806101000a81548173ffffffffffffffffffffffffffffffffffffffff021916908373ffffffffffffffffffffffffffffffffffffffff1602179055507fa2ea9883a321a3e97b8266c2b078bfeec6d50c711ed71f874a90d500ae2eaf366000809054906101000a900473ffffffffffffffffffffffffffffffffffffffff16604051808273ffffffffffffffffffffffffffffffffffffffff1673ffffffffffffffffffffffffffffffffffffffff16815260200191505060405180910390a15b50565b6000806125a283611cb3565b90508073ffffffffffffffffffffffffffffffffffffffff168473ffffffffffffffffffffffffffffffffffffffff16148061261157508373ffffffffffffffffffffffffffffffffffffffff166125f984611107565b73ffffffffffffffffffffffffffffffffffffffff16145b8061262257506126218185612361565b5b91505092915050565b612636838383612aa5565b6126408382612d07565b61264a8282612ea5565b505050565b60008060019050600073ffffffffffffffffffffffffffffffffffffffff166015600085815260200190815260200160002060010160009054906101000a900473ffffffffffffffffffffffffffffffffffffffff1673ffffffffffffffffffffffffffffffffffffffff1614156126c657600090505b80915050919050565b600081600001549050919050565b60006126fe8473ffffffffffffffffffffffffffffffffffffffff16612f6c565b61270b57600190506128be565b60008473ffffffffffffffffffffffffffffffffffffffff1663150b7a02338887876040518563ffffffff1660e01b8152600401808573ffffffffffffffffffffffffffffffffffffffff1673ffffffffffffffffffffffffffffffffffffffff1681526020018473ffffffffffffffffffffffffffffffffffffffff1673ffffffffffffffffffffffffffffffffffffffff16815260200183815260200180602001828103825283818151815260200191508051906020019080838360005b838110156127e65780820151818401526020810190506127cb565b50505050905090810190601f1680156128135780820380516001836020036101000a031916815260200191505b5095505050505050602060405180830381600087803b15801561283557600080fd5b505af1158015612849573d6000803e3d6000fd5b505050506040513d602081101561285f57600080fd5b8101908080519060200190929190505050905063150b7a0260e01b7bffffffffffffffffffffffffffffffffffffffffffffffffffffffff1916817bffffffffffffffffffffffffffffffffffffffffffffffffffffffff1916149150505b949350505050565b6000806001905060006003600085815260200190815260200160002060009054906101000a900473ffffffffffffffffffffffffffffffffffffffff169050600073ffffffffffffffffffffffffffffffffffffffff168173ffffffffffffffffffffffffffffffffffffffff16141561293f57600091505b8192505050919050565b6129538282612f7f565b61295d8282612ea5565b61296681613163565b5050565b60011515612977826128c6565b1515146129cf576040517f08c379a00000000000000000000000000000000000000000000000000000000081526004018080602001828103825260348152602001806138f36034913960400191505060405180910390fd5b612a7b60128054600181600116156101000203166002900480601f016020809104026020016040519081016040528092919081815260200182805460018160011615610100020316600290048015612a685780601f10612a3d57610100808354040283529160200191612a68565b820191906000526020600020905b815481529060010190602001808311612a4b57829003601f168201915b5050505050612a76836131af565b6132dc565b601360008381526020019081526020016000209080519060200190612aa19291906136a4565b5050565b612aae81611cb3565b73ffffffffffffffffffffffffffffffffffffffff168373ffffffffffffffffffffffffffffffffffffffff1614612b31576040517f08c379a000000000000000000000000000000000000000000000000000000000815260040180806020018281038252603c8152602001806139be603c913960400191505060405180910390fd5b600073ffffffffffffffffffffffffffffffffffffffff168273ffffffffffffffffffffffffffffffffffffffff161415612bb7576040517f08c379a00000000000000000000000000000000000000000000000000000000081526004018080602001828103825260328152602001806138c16032913960400191505060405180910390fd5b612bc18382612596565b15612ca757612c0d600560008573ffffffffffffffffffffffffffffffffffffffff1673ffffffffffffffffffffffffffffffffffffffff168152602001908152602001600020613320565b816003600083815260200190815260200160002060006101000a81548173ffffffffffffffffffffffffffffffffffffffff021916908373ffffffffffffffffffffffffffffffffffffffff160217905550612ca6600560008473ffffffffffffffffffffffffffffffffffffffff1673ffffffffffffffffffffffffffffffffffffffff168152602001908152602001600020613343565b5b808273ffffffffffffffffffffffffffffffffffffffff168473ffffffffffffffffffffffffffffffffffffffff167fddf252ad1be2c89b69c2b068fc378daa952ba7f163c4a11628f55a4df523b3ef60405160405180910390a4505050565b6000612d5f6001600760008673ffffffffffffffffffffffffffffffffffffffff1673ffffffffffffffffffffffffffffffffffffffff1681526020019081526020016000208054905061335990919063ffffffff16565b9050600060086000848152602001908152602001600020549050818114612e4c576000600760008673ffffffffffffffffffffffffffffffffffffffff1673ffffffffffffffffffffffffffffffffffffffff1681526020019081526020016000208381548110612dcc57fe5b9060005260206000200154905080600760008773ffffffffffffffffffffffffffffffffffffffff1673ffffffffffffffffffffffffffffffffffffffff1681526020019081526020016000208381548110612e2457fe5b9060005260206000200181905550816008600083815260200190815260200160002081905550505b600760008573ffffffffffffffffffffffffffffffffffffffff1673ffffffffffffffffffffffffffffffffffffffff168152602001908152602001600020805480919060019003612e9e9190613724565b5050505050565b600760008373ffffffffffffffffffffffffffffffffffffffff1673ffffffffffffffffffffffffffffffffffffffff168152602001908152602001600020805490506008600083815260200190815260200160002081905550600760008373ffffffffffffffffffffffffffffffffffffffff1673ffffffffffffffffffffffffffffffffffffffff1681526020019081526020016000208190806001815401808255809150509060018203906000526020600020016000909192909190915055505050565b600080823b905060008111915050919050565b60001515612f8c826128c6565b151514612fe4576040517f08c379a000000000000000000000000000000000000000000000000000000000815260040180806020018281038252602b8152602001806137fe602b913960400191505060405180910390fd5b600073ffffffffffffffffffffffffffffffffffffffff168273ffffffffffffffffffffffffffffffffffffffff16141561306a576040517f08c379a00000000000000000000000000000000000000000000000000000000081526004018080602001828103825260238152602001806137986023913960400191505060405180910390fd5b816003600083815260200190815260200160002060006101000a81548173ffffffffffffffffffffffffffffffffffffffff021916908373ffffffffffffffffffffffffffffffffffffffff160217905550613103600560008473ffffffffffffffffffffffffffffffffffffffff1673ffffffffffffffffffffffffffffffffffffffff168152602001908152602001600020613343565b808273ffffffffffffffffffffffffffffffffffffffff16600073ffffffffffffffffffffffffffffffffffffffff167fddf252ad1be2c89b69c2b068fc378daa952ba7f163c4a11628f55a4df523b3ef60405160405180910390a45050565b600980549050600a600083815260200190815260200160002081905550600981908060018154018082558091505090600182039060005260206000200160009091929091909150555050565b606060008214156131f7576040518060400160405280600181526020017f300000000000000000000000000000000000000000000000000000000000000081525090506132d7565b600082905060005b60008214613221578080600101915050600a828161321957fe5b0491506131ff565b6060816040519080825280601f01601f1916602001820160405280156132565781602001600182028038833980820191505090505b50905060006001830390505b600086146132cf57600a868161327457fe5b0660300160f81b8282806001900393508151811061328e57fe5b60200101907effffffffffffffffffffffffffffffffffffffffffffffffffffffffffffff1916908160001a905350600a86816132c757fe5b049550613262565b819450505050505b919050565b606061331883836040518060200160405280600081525060405180602001604052806000815250604051806020016040528060008152506133e2565b905092915050565b6133386001826000015461335990919063ffffffff16565b816000018190555050565b6001816000016000828254019250508190555050565b6000828211156133d1576040517f08c379a000000000000000000000000000000000000000000000000000000000815260040180806020018281038252601e8152602001807f536166654d6174683a207375627472616374696f6e206f766572666c6f77000081525060200191505060405180910390fd5b600082840390508091505092915050565b6060808690506060869050606086905060608690506060869050606081518351855187518951010101016040519080825280601f01601f19166020018201604052801561343e5781602001600182028038833980820191505090505b509050606081905060008090506000809050600090505b88518110156134c35788818151811061346a57fe5b602001015160f81c60f81b83838060010194508151811061348757fe5b60200101907effffffffffffffffffffffffffffffffffffffffffffffffffffffffffffff1916908160001a9053508080600101915050613455565b600090505b8751811015613536578781815181106134dd57fe5b602001015160f81c60f81b8383806001019450815181106134fa57fe5b60200101907effffffffffffffffffffffffffffffffffffffffffffffffffffffffffffff1916908160001a90535080806001019150506134c8565b600090505b86518110156135a95786818151811061355057fe5b602001015160f81c60f81b83838060010194508151811061356d57fe5b60200101907effffffffffffffffffffffffffffffffffffffffffffffffffffffffffffff1916908160001a905350808060010191505061353b565b600090505b855181101561361c578581815181106135c357fe5b602001015160f81c60f81b8383806001019450815181106135e057fe5b60200101907effffffffffffffffffffffffffffffffffffffffffffffffffffffffffffff1916908160001a90535080806001019150506135ae565b600090505b845181101561368f5784818151811061363657fe5b602001015160f81c60f81b83838060010194508151811061365357fe5b60200101907effffffffffffffffffffffffffffffffffffffffffffffffffffffffffffff1916908160001a9053508080600101915050613621565b82995050505050505050505095945050505050565b828054600181600116156101000203166002900490600052602060002090601f016020900481019282601f106136e557805160ff1916838001178555613713565b82800160010185558215613713579182015b828111156137125782518255916020019190600101906136f7565b5b5090506137209190613750565b5090565b81548183558181111561374b5781836000526020600020918201910161374a9190613750565b5b505050565b61377291905b8082111561376e576000816000905550600101613756565b5090565b9056fe53656e6465722063616e6e6f7420617070726f7665206f776e20616464726573732e4164647265737320726563656976696e6720746f6b656e20697320696e76616c69642e436865636b204f6e204552433732312052656365697665642069732066616c736553656e646572206973206e6f7420617070726f76656420746f207472616e73666572546f6b656e20616c7265616479206578697374732c20736f2063616e6e6f74206d696e7420616761696e2e4f6e6c7920746865206f776e657220697320616c6c6f776564206163636573732e43616e6e6f742067657420746f6b656e20555249206265636175736520746f6b656e206d7573742065786973742066697273742e50726f766964656420736f6c7574696f6e20746f206d696e7420646f6573206e6f74206d617463682070726576696f75736c7920616464656420736f6c7574696f6e2e546f2061646472657373206973206e6f7420612076616c6964206164647265737320666f72207472616e73666572696e672e43616e6e6f742073657420746f6b656e20555249206265636175736520746f6b656e206d7573742065786973742066697273742e546f206164647265737320697320616c726561647920746865206f776e6572206f662074686520746f6b656e2e4f6e6c7920746865206f776e6572206d617920617070726f7665207472616e7366657220726967687473206f662074686520746f6b656e2c206f722074686520746f6b656e206d75737420616c6c6f7720616c6c20746f20617070726f7665207472616e73666572732e46726f6d2061646472657373206973206e6f7420746865206f776e6572206f662074686520746f6b656e206265696e67207472616e7366657265642ea165627a7a7230582034bf73f6bf960ec11e8bba2619477c7aedd5f448ddafee656f3509fd4c39c0ab0029608060405234801561001057600080fd5b506110f6806100206000396000f3fe608060405234801561001057600080fd5b506004361061002b5760003560e01c8063621e9ec014610030575b600080fd5b61018f600480360361014081101561004757600080fd5b8101908080604001906002806020026040519081016040528092919082600260200280828437600081840152601f19601f82011690508083019250505050505091929192908060800190600280602002604051908101604052809291906000905b828210156100fc578382604002016002806020026040519081016040528092919082600260200280828437600081840152601f19601f820116905080830192505050505050815260200190600101906100a8565b50505050919291929080604001906002806020026040519081016040528092919082600260200280828437600081840152601f19601f820116905080830192505050505050919291929080604001906002806020026040519081016040528092919082600260200280828437600081840152601f19601f82011690508083019250505050505091929192905050506101a9565b604051808215151515815260200191505060405180910390f35b60006101b3610f4a565b6040518060400160405280876000600281106101cb57fe5b60200201518152602001876001600281106101e257fe5b60200201518152508160000181905250604051806040016040528060405180604001604052808860006002811061021557fe5b602002015160006002811061022657fe5b602002015181526020018860006002811061023d57fe5b602002015160016002811061024e57fe5b6020020151815250815260200160405180604001604052808860016002811061027357fe5b602002015160006002811061028457fe5b602002015181526020018860016002811061029b57fe5b60200201516001600281106102ac57fe5b602002015181525081525081602001819052506040518060400160405280856000600281106102d757fe5b60200201518152602001856001600281106102ee57fe5b60200201518152508160400181905250606060026040519080825280602002602001820160405280156103305781602001602082028038833980820191505090505b50905060008090505b60028110156103785784816002811061034e57fe5b602002015182828151811061035f57fe5b6020026020010181815250508080600101915050610339565b50600061038582846103f0565b14156103e1577f3f3cfdb26fb5f9f1786ab4f1a1f9cd4c0b5e726cbdfc26e495261731aad44e396040518080602001828103825260228152602001806110a96022913960400191505060405180910390a16001925050506103e8565b6000925050505b949350505050565b6000807f30644e72e131a029b85045b68181585d2833e84879b9709143e1f593f0000001905061041e610f7e565b610426610562565b905080608001515160018651011461043d57600080fd5b610445610fc6565b6040518060400160405280600081526020016000815250905060008090505b86518110156104db578387828151811061047a57fe5b60200260200101511061048c57600080fd5b6104cc826104c7856080015160018501815181106104a657fe5b60200260200101518a85815181106104ba57fe5b60200260200101516109b0565b610a44565b91508080600101915050610464565b506104fe8183608001516000815181106104f157fe5b6020026020010151610a44565b90506105448560000151866020015161051684610af7565b85604001516105288a60400151610af7565b876060015161053a8960000151610af7565b8960200151610b91565b610554576001935050505061055c565b600093505050505b92915050565b61056a610f7e565b60405180604001604052807f18946b45a1f66e998ffc9d00e505cf55c4bc0c99518f397afab6ed5cd9e544cb81526020017f2d3d726f1a454f2e24819bf7d16e711057759eabd65389d3a083e40a7d22a4c28152508160000181905250604051806040016040528060405180604001604052807f1a13c380bb1973fab75ce15ff3f0deec995de01d24ea32a03628c4e2bd6cf25a81526020017f2c41cfcc8739332416be2ad2b48bae9f7f931d021085484cc797fbcd0476968b815250815260200160405180604001604052807f2dfed656548dadc2d1814ddd5aff7a02d3549022e0590370da0d4ae982fc7b8981526020017f131209c899d605227c765f3249ad9c247d0f27606e1819eeefdb4b0ad1c225de8152508152508160200181905250604051806040016040528060405180604001604052807f2ce3684ea5d6ae46c9dea538907a2411883734724080bc568bd1ff68c1a8291981526020017f14af50f80c2a3e4c9d8f29bae9630ce1a51731df5a650730f38fba4c66ffe7c1815250815260200160405180604001604052807f235b9d703d414e51b10cff2b0c5b4a45c125e5512b91e5bbd2b7c9d8f5306a6681526020017f0f53fe58e307cbec44882315f2c27296593cab83aae9c60cf7a8eda02a0cd0df8152508152508160400181905250604051806040016040528060405180604001604052807f2e43e2c1aa4973686af1005d4fc7c62b937f65749d3d81201ef94da057f8204881526020017f11edc0a55e3a46a9b80f61c1f2243d6aa6ae4b554dffc400e23cee9721b489df815250815260200160405180604001604052807f2600dace321b1d33d0b7aa7184ed46f8ea1746827c526cc4084196003eef896381526020017f02eabee8fb45623cb3b0d2c3f92a04eab2901b1c02cd5ffcdbe754c094ff56ac8152508152508160600181905250600360405190808252806020026020018201604052801561085157816020015b61083e610fe0565b8152602001906001900390816108365790505b50816080018190525060405180604001604052807f1bd11c97cda7790c3f24648a34a9befc6f3a6b6b08bc4faddce2031c57955a1f81526020017f1183189044993710825bee11b772ad2ecd6ec450ef83f6fdff639a9a18794e7e81525081608001516000815181106108c057fe5b602002602001018190525060405180604001604052807f17932b9658adb78623096e2dc9a68e5987c2c79f22a37e8fc0abbc236ef0050681526020017f0521958f8a1c16d418a80f9158c695d5dba27a09c7fb927b2f96ace47d38b289815250816080015160018151811061093157fe5b602002602001018190525060405180604001604052807f2c42590c5cf0dabc8022b46fac0017f5c6f6df5d544bdf391468ce2e8b11502281526020017f19ace53c68b31c8bd3cc1143b3fe8e38337f5c57a2092f6243493c3faa2ff82481525081608001516002815181106109a257fe5b602002602001018190525090565b6109b8610fc6565b6109c0610ffa565b8360000151816000600381106109d257fe5b6020020181815250508360200151816001600381106109ed57fe5b6020020181815250508281600260038110610a0457fe5b6020020181815250506000606083608084600060076107d05a03f190508060008114610a2f57610a31565bfe5b5080610a3c57600080fd5b505092915050565b610a4c610fc6565b610a5461101c565b836000015181600060048110610a6657fe5b602002018181525050836020015181600160048110610a8157fe5b602002018181525050826000015181600260048110610a9c57fe5b602002018181525050826020015181600360048110610ab757fe5b602002018181525050600060608360c084600060066107d05a03f190508060008114610ae257610ae4565bfe5b5080610aef57600080fd5b505092915050565b610aff610fc6565b60007f30644e72e131a029b85045b68181585d97816a916871ca8d3c208c16d87cfd47905060008360000151148015610b3c575060008360200151145b15610b60576040518060400160405280600081526020016000815250915050610b8c565b60405180604001604052808460000151815260200182856020015181610b8257fe5b0683038152509150505b919050565b600060606004604051908082528060200260200182016040528015610bd057816020015b610bbd610fe0565b815260200190600190039081610bb55790505b50905060606004604051908082528060200260200182016040528015610c1057816020015b610bfd61103e565b815260200190600190039081610bf55790505b5090508a82600081518110610c2157fe5b60200260200101819052508882600181518110610c3a57fe5b60200260200101819052508682600281518110610c5357fe5b60200260200101819052508482600381518110610c6c57fe5b60200260200101819052508981600081518110610c8557fe5b60200260200101819052508781600181518110610c9e57fe5b60200260200101819052508581600281518110610cb757fe5b60200260200101819052508381600381518110610cd057fe5b6020026020010181905250610ce58282610cf5565b9250505098975050505050505050565b60008151835114610d0557600080fd5b6000835190506000600682029050606081604051908082528060200260200182016040528015610d445781602001602082028038833980820191505090505b50905060008090505b83811015610eea57868181518110610d6157fe5b602002602001015160000151826000600684020181518110610d7f57fe5b602002602001018181525050868181518110610d9757fe5b602002602001015160200151826001600684020181518110610db557fe5b602002602001018181525050858181518110610dcd57fe5b602002602001015160000151600060028110610de557fe5b6020020151826002600684020181518110610dfc57fe5b602002602001018181525050858181518110610e1457fe5b602002602001015160000151600160028110610e2c57fe5b6020020151826003600684020181518110610e4357fe5b602002602001018181525050858181518110610e5b57fe5b602002602001015160200151600060028110610e7357fe5b6020020151826004600684020181518110610e8a57fe5b602002602001018181525050858181518110610ea257fe5b602002602001015160200151600160028110610eba57fe5b6020020151826005600684020181518110610ed157fe5b6020026020010181815250508080600101915050610d4d565b50610ef3611064565b60006020826020860260208601600060086107d05a03f190508060008114610f1a57610f1c565bfe5b5080610f2757600080fd5b600082600060018110610f3657fe5b602002015114159550505050505092915050565b604051806101000160405280610f5e610fe0565b8152602001610f6b61103e565b8152602001610f78610fe0565b81525090565b604051806101e00160405280610f92610fe0565b8152602001610f9f61103e565b8152602001610fac61103e565b8152602001610fb961103e565b8152602001606081525090565b604051806040016040528060008152602001600081525090565b604051806040016040528060008152602001600081525090565b6040518060600160405280600390602082028038833980820191505090505090565b6040518060800160405280600490602082028038833980820191505090505090565b6040518060800160405280611051611086565b815260200161105e611086565b81525090565b6040518060200160405280600190602082028038833980820191505090505090565b604051806040016040528060029060208202803883398082019150509050509056fe5472616e73616374696f6e207375636365737366756c6c792076657269666965642ea165627a7a72305820fef610d4bd9de52742c879efbf5049f26908dd96b3de750c4bc67748077c516b002968747470733a2f2f73332d75732d776573742d322e616d617a6f6e6177732e636f6d2f756461636974792d626c6f636b636861696e2f63617073746f6e652f",
  "source": "pragma solidity >=0.4.21 <0.6.0;\n\nimport './ERC721Mintable.sol';\nimport '../../zokrates/code/square/verifier.sol';\n\n// TODO define a contract call to the zokrates generated solidity contract <Verifier> or <renamedVerifier>\ncontract SquareVerifier is Verifier {\n\n}\n\n// TODO define another contract named SolnSquareVerifier that inherits from your ERC721Mintable class\ncontract SolnSquareVerifier is CustomERC721Token {\n    SquareVerifier private verifierContract;\n\n    constructor() public\n    {\n        verifierContract = new SquareVerifier();\n    }\n\n    // TODO define a solutions struct that can hold an index & an address\n    struct Solution {\n        uint256 tokenId;\n        address tokenAddress;\n    }\n\n    // TODO define a mapping to store unique solutions submitted; solution hash key to solution struct mapping\n    mapping(bytes32 => Solution) private addedSolutions;\n\n    // TODO Create an event to emit when a solution is added\n    event SolutionAdded(bytes32 solutionKey);\n\n    // TODO Create a function to add the solutions to the array and emit the event\n    function addSolution(address to,\n                        uint256 tokenId,\n                        uint[2] memory a,\n                        uint[2][2] memory b,\n                        uint[2] memory c,\n                        uint[2] memory input) public {\n        bytes32 key = keccak256(abi.encodePacked(a,b,c,input));\n        require(doesExist(key)==false,\"Solution already added.\");\n\n        addedSolutions[key] = Solution({tokenId: tokenId, tokenAddress: to});\n        emit SolutionAdded(key);\n    }\n\n    function doesExist(bytes32 key)\n        private\n        view\n        returns(bool)\n    {\n        bool _result = true;\n        if (addedSolutions[key].tokenAddress == address(0)) {\n            _result = false;\n        }\n        return _result;\n    }\n\n    // TODO Create a function to mint new NFT only after the solution has been verified\n    //  - make sure the solution is unique (has not been used before)\n    //  - make sure you handle metadata as well as tokenSupply\n    function mint(address to,\n\t\t\t     uint256 tokenId,\n                 string memory tokenURI,\n                 uint[2] memory a,\n                 uint[2][2] memory b,\n                 uint[2] memory c,\n                 uint[2] memory inputs)\n                 public\n                 returns(bool)\n    {\n        bytes32 key = keccak256(abi.encodePacked(a,b,c,inputs));\n        require(addedSolutions[key].tokenAddress == to, \"Provided solution to mint does not match previously added solution.\");\n\n        bool isMinted = false;\n        if (verifierContract.verifyTx(a,b,c,inputs) == true) {\n            isMinted = super.mint(to, tokenId, tokenURI);\n        }\n        return isMinted;\n    }\n\n}\n",
  "sourcePath": "C:/Users/jimhu/Google Drive/Blockchain Nanodegree/Blockchain-Capstone/eth-contracts/contracts/SolnSquareVerifier.sol",
  "compiler": {
    "name": "solc",
    "version": "0.5.8+commit.23d335f2.Emscripten.clang"
  },
  "schemaVersion": "3.0.13",
  "updatedAt": "2019-10-23T23:50:09.739Z",
  "devdoc": {
    "methods": {
      "isApprovedForAll(address,address)": {
        "details": "Tells whether an operator is approved by a given owner",
        "params": {
          "operator": "operator address which you want to query the approval of",
          "owner": "owner address which you want to query the approval of"
        },
        "return": "bool whether the given operator is approved by the given owner"
      },
      "setApprovalForAll(address,bool)": {
        "details": "Sets or unsets the approval of a given operator An operator is allowed to transfer all tokens of the sender on their behalf",
        "params": {
          "approved": "representing the status of the approval to be set",
          "to": "operator address to set the approval"
        }
      },
      "supportsInterface(bytes4)": {
        "details": "implement supportsInterface(bytes4) using a lookup table"
      },
      "tokenByIndex(uint256)": {
        "details": "Gets the token ID at a given index of all the tokens in this contract Reverts if the index is greater or equal to the total number of tokens",
        "params": {
          "index": "uint256 representing the index to be accessed of the tokens list"
        },
        "return": "uint256 token ID at the given index of the tokens list"
      },
      "tokenOfOwnerByIndex(address,uint256)": {
        "details": "Gets the token ID at a given index of the tokens list of the requested owner",
        "params": {
          "index": "uint256 representing the index to be accessed of the requested tokens list",
          "owner": "address owning the tokens list to be accessed"
        },
        "return": "uint256 token ID at the given index of the tokens list owned by the requested address"
      },
      "totalSupply()": {
        "details": "Gets the total amount of tokens stored by the contract",
        "return": "uint256 representing the total amount of tokens"
      }
    }
  },
  "userdoc": {
    "methods": {}
  }
}